{
  "contractName": "ImovelRegistry",
  "abi": [
    {
      "inputs": [
        {
          "internalType": "string",
          "name": "_desc",
          "type": "string"
        },
        {
          "internalType": "uint16",
          "name": "_srid",
          "type": "uint16"
        }
      ],
      "stateMutability": "nonpayable",
      "type": "constructor"
    },
    {
      "anonymous": false,
      "inputs": [
        {
          "indexed": true,
          "internalType": "address",
          "name": "owner",
          "type": "address"
        },
        {
          "indexed": true,
          "internalType": "address",
          "name": "approved",
          "type": "address"
        },
        {
          "indexed": true,
          "internalType": "uint256",
          "name": "tokenId",
          "type": "uint256"
        }
      ],
      "name": "Approval",
      "type": "event"
    },
    {
      "anonymous": false,
      "inputs": [
        {
          "indexed": true,
          "internalType": "address",
          "name": "owner",
          "type": "address"
        },
        {
          "indexed": true,
          "internalType": "address",
          "name": "operator",
          "type": "address"
        },
        {
          "indexed": false,
          "internalType": "bool",
          "name": "approved",
          "type": "bool"
        }
      ],
      "name": "ApprovalForAll",
      "type": "event"
    },
    {
      "anonymous": false,
      "inputs": [
        {
          "indexed": false,
          "internalType": "address",
          "name": "account",
          "type": "address"
        }
      ],
      "name": "Paused",
      "type": "event"
    },
    {
      "anonymous": false,
      "inputs": [
        {
          "indexed": true,
          "internalType": "bytes32",
          "name": "role",
          "type": "bytes32"
        },
        {
          "indexed": true,
          "internalType": "bytes32",
          "name": "previousAdminRole",
          "type": "bytes32"
        },
        {
          "indexed": true,
          "internalType": "bytes32",
          "name": "newAdminRole",
          "type": "bytes32"
        }
      ],
      "name": "RoleAdminChanged",
      "type": "event"
    },
    {
      "anonymous": false,
      "inputs": [
        {
          "indexed": true,
          "internalType": "bytes32",
          "name": "role",
          "type": "bytes32"
        },
        {
          "indexed": true,
          "internalType": "address",
          "name": "account",
          "type": "address"
        },
        {
          "indexed": true,
          "internalType": "address",
          "name": "sender",
          "type": "address"
        }
      ],
      "name": "RoleGranted",
      "type": "event"
    },
    {
      "anonymous": false,
      "inputs": [
        {
          "indexed": true,
          "internalType": "bytes32",
          "name": "role",
          "type": "bytes32"
        },
        {
          "indexed": true,
          "internalType": "address",
          "name": "account",
          "type": "address"
        },
        {
          "indexed": true,
          "internalType": "address",
          "name": "sender",
          "type": "address"
        }
      ],
      "name": "RoleRevoked",
      "type": "event"
    },
    {
      "anonymous": false,
      "inputs": [
        {
          "indexed": true,
          "internalType": "address",
          "name": "from",
          "type": "address"
        },
        {
          "indexed": true,
          "internalType": "address",
          "name": "to",
          "type": "address"
        },
        {
          "indexed": true,
          "internalType": "uint256",
          "name": "tokenId",
          "type": "uint256"
        }
      ],
      "name": "Transfer",
      "type": "event"
    },
    {
      "anonymous": false,
      "inputs": [
        {
          "indexed": false,
          "internalType": "address",
          "name": "account",
          "type": "address"
        }
      ],
      "name": "Unpaused",
      "type": "event"
    },
    {
      "inputs": [],
      "name": "DEFAULT_ADMIN_ROLE",
      "outputs": [
        {
          "internalType": "bytes32",
          "name": "",
          "type": "bytes32"
        }
      ],
      "stateMutability": "view",
      "type": "function",
      "constant": true
    },
    {
      "inputs": [],
      "name": "MINTER_ROLE",
      "outputs": [
        {
          "internalType": "bytes32",
          "name": "",
          "type": "bytes32"
        }
      ],
      "stateMutability": "view",
      "type": "function",
      "constant": true
    },
    {
      "inputs": [],
      "name": "PAUSER_ROLE",
      "outputs": [
        {
          "internalType": "bytes32",
          "name": "",
          "type": "bytes32"
        }
      ],
      "stateMutability": "view",
      "type": "function",
      "constant": true
    },
    {
      "inputs": [
        {
          "internalType": "address",
          "name": "to",
          "type": "address"
        },
        {
          "internalType": "uint256",
          "name": "tokenId",
          "type": "uint256"
        }
      ],
      "name": "approve",
      "outputs": [],
      "stateMutability": "nonpayable",
      "type": "function"
    },
    {
      "inputs": [
        {
          "internalType": "address",
          "name": "owner",
          "type": "address"
        }
      ],
      "name": "balanceOf",
      "outputs": [
        {
          "internalType": "uint256",
          "name": "",
          "type": "uint256"
        }
      ],
      "stateMutability": "view",
      "type": "function",
      "constant": true
    },
    {
      "inputs": [],
      "name": "desc",
      "outputs": [
        {
          "internalType": "string",
          "name": "",
          "type": "string"
        }
      ],
      "stateMutability": "view",
      "type": "function",
      "constant": true
    },
    {
      "inputs": [
        {
          "internalType": "uint256",
          "name": "tokenId",
          "type": "uint256"
        }
      ],
      "name": "getApproved",
      "outputs": [
        {
          "internalType": "address",
          "name": "",
          "type": "address"
        }
      ],
      "stateMutability": "view",
      "type": "function",
      "constant": true
    },
    {
      "inputs": [
        {
          "internalType": "bytes32",
          "name": "role",
          "type": "bytes32"
        }
      ],
      "name": "getRoleAdmin",
      "outputs": [
        {
          "internalType": "bytes32",
          "name": "",
          "type": "bytes32"
        }
      ],
      "stateMutability": "view",
      "type": "function",
      "constant": true
    },
    {
      "inputs": [
        {
          "internalType": "bytes32",
          "name": "role",
          "type": "bytes32"
        },
        {
          "internalType": "address",
          "name": "account",
          "type": "address"
        }
      ],
      "name": "grantRole",
      "outputs": [],
      "stateMutability": "nonpayable",
      "type": "function"
    },
    {
      "inputs": [
        {
          "internalType": "bytes32",
          "name": "role",
          "type": "bytes32"
        },
        {
          "internalType": "address",
          "name": "account",
          "type": "address"
        }
      ],
      "name": "hasRole",
      "outputs": [
        {
          "internalType": "bool",
          "name": "",
          "type": "bool"
        }
      ],
      "stateMutability": "view",
      "type": "function",
      "constant": true
    },
    {
      "inputs": [
        {
          "internalType": "address",
          "name": "owner",
          "type": "address"
        },
        {
          "internalType": "address",
          "name": "operator",
          "type": "address"
        }
      ],
      "name": "isApprovedForAll",
      "outputs": [
        {
          "internalType": "bool",
          "name": "",
          "type": "bool"
        }
      ],
      "stateMutability": "view",
      "type": "function",
      "constant": true
    },
    {
      "inputs": [],
      "name": "name",
      "outputs": [
        {
          "internalType": "string",
          "name": "",
          "type": "string"
        }
      ],
      "stateMutability": "view",
      "type": "function",
      "constant": true
    },
    {
      "inputs": [
        {
          "internalType": "uint256",
          "name": "tokenId",
          "type": "uint256"
        }
      ],
      "name": "ownerOf",
      "outputs": [
        {
          "internalType": "address",
          "name": "",
          "type": "address"
        }
      ],
      "stateMutability": "view",
      "type": "function",
      "constant": true
    },
    {
      "inputs": [],
      "name": "paused",
      "outputs": [
        {
          "internalType": "bool",
          "name": "",
          "type": "bool"
        }
      ],
      "stateMutability": "view",
      "type": "function",
      "constant": true
    },
    {
      "inputs": [
        {
          "internalType": "bytes",
          "name": "_parentCell",
          "type": "bytes"
        }
      ],
      "name": "propertyOf",
      "outputs": [
        {
          "internalType": "uint256",
          "name": "propId",
          "type": "uint256"
        }
      ],
      "stateMutability": "view",
      "type": "function",
      "constant": true
    },
    {
      "inputs": [
        {
          "internalType": "bytes",
          "name": "_parentCell",
          "type": "bytes"
        }
      ],
      "name": "registeredCells",
      "outputs": [
        {
          "internalType": "uint64[]",
          "name": "ret",
          "type": "uint64[]"
        }
      ],
      "stateMutability": "view",
      "type": "function",
      "constant": true
    },
    {
      "inputs": [
        {
          "internalType": "bytes",
          "name": "_parentCell",
          "type": "bytes"
        }
      ],
      "name": "registeredCellsPerQuad",
      "outputs": [
        {
          "internalType": "uint64[]",
          "name": "ret",
          "type": "uint64[]"
        }
      ],
      "stateMutability": "view",
      "type": "function",
      "constant": true
    },
    {
      "inputs": [
        {
          "internalType": "bytes32",
          "name": "role",
          "type": "bytes32"
        },
        {
          "internalType": "address",
          "name": "account",
          "type": "address"
        }
      ],
      "name": "renounceRole",
      "outputs": [],
      "stateMutability": "nonpayable",
      "type": "function"
    },
    {
      "inputs": [
        {
          "internalType": "bytes32",
          "name": "role",
          "type": "bytes32"
        },
        {
          "internalType": "address",
          "name": "account",
          "type": "address"
        }
      ],
      "name": "revokeRole",
      "outputs": [],
      "stateMutability": "nonpayable",
      "type": "function"
    },
    {
      "inputs": [
        {
          "internalType": "address",
          "name": "from",
          "type": "address"
        },
        {
          "internalType": "address",
          "name": "to",
          "type": "address"
        },
        {
          "internalType": "uint256",
          "name": "tokenId",
          "type": "uint256"
        }
      ],
      "name": "safeTransferFrom",
      "outputs": [],
      "stateMutability": "nonpayable",
      "type": "function"
    },
    {
      "inputs": [
        {
          "internalType": "address",
          "name": "from",
          "type": "address"
        },
        {
          "internalType": "address",
          "name": "to",
          "type": "address"
        },
        {
          "internalType": "uint256",
          "name": "tokenId",
          "type": "uint256"
        },
        {
          "internalType": "bytes",
          "name": "data",
          "type": "bytes"
        }
      ],
      "name": "safeTransferFrom",
      "outputs": [],
      "stateMutability": "nonpayable",
      "type": "function"
    },
    {
      "inputs": [
        {
          "internalType": "address",
          "name": "operator",
          "type": "address"
        },
        {
          "internalType": "bool",
          "name": "approved",
          "type": "bool"
        }
      ],
      "name": "setApprovalForAll",
      "outputs": [],
      "stateMutability": "nonpayable",
      "type": "function"
    },
    {
      "inputs": [],
      "name": "srid",
      "outputs": [
        {
          "internalType": "uint16",
          "name": "",
          "type": "uint16"
        }
      ],
      "stateMutability": "view",
      "type": "function",
      "constant": true
    },
    {
      "inputs": [],
      "name": "symbol",
      "outputs": [
        {
          "internalType": "string",
          "name": "",
          "type": "string"
        }
      ],
      "stateMutability": "view",
      "type": "function",
      "constant": true
    },
    {
      "inputs": [
        {
          "internalType": "address",
          "name": "from",
          "type": "address"
        },
        {
          "internalType": "address",
          "name": "to",
          "type": "address"
        },
        {
          "internalType": "uint256",
          "name": "tokenId",
          "type": "uint256"
        }
      ],
      "name": "transferFrom",
      "outputs": [],
      "stateMutability": "nonpayable",
      "type": "function"
    },
    {
      "inputs": [],
      "name": "pause",
      "outputs": [],
      "stateMutability": "nonpayable",
      "type": "function"
    },
    {
      "inputs": [],
      "name": "unpause",
      "outputs": [],
      "stateMutability": "nonpayable",
      "type": "function"
    },
    {
      "inputs": [
        {
          "internalType": "address",
          "name": "_for",
          "type": "address"
        },
        {
          "internalType": "string",
          "name": "_metaUri",
          "type": "string"
        },
        {
          "internalType": "bytes",
          "name": "_cellData",
          "type": "bytes"
        }
      ],
      "name": "claimLand",
      "outputs": [],
      "stateMutability": "nonpayable",
      "type": "function"
    },
    {
      "inputs": [
        {
          "internalType": "uint256",
          "name": "tokenId",
          "type": "uint256"
        }
      ],
      "name": "tokenURI",
      "outputs": [
        {
          "internalType": "string",
          "name": "",
          "type": "string"
        }
      ],
      "stateMutability": "view",
      "type": "function",
      "constant": true
    },
    {
      "inputs": [
        {
          "internalType": "bytes4",
          "name": "interfaceId",
          "type": "bytes4"
        }
      ],
      "name": "supportsInterface",
      "outputs": [
        {
          "internalType": "bool",
          "name": "",
          "type": "bool"
        }
      ],
      "stateMutability": "view",
      "type": "function",
      "constant": true
    }
  ],
  "bytecode": "0x60806040523480156200001157600080fd5b5060405162005f2c38038062005f2c8339818101604052810190620000379190620005ba565b81816040518060400160405280601281526020017f526567697374726f20646520496d6f76656c00000000000000000000000000008152506040518060400160405280600381526020017f52474900000000000000000000000000000000000000000000000000000000008152508160009081620000b691906200086b565b508060019081620000c891906200086b565b5050506000600760006101000a81548160ff0219169083151502179055506104008161ffff1610158015620001035750617fff8161ffff1611155b62000145576040517f08c379a00000000000000000000000000000000000000000000000000000000081526004016200013c90620009d9565b60405180910390fd5b600060f81b82600081518110620001615762000160620009fb565b5b602001015160f81c60f81b7effffffffffffffffffffffffffffffffffffffffffffffffffffffffffffff191603620001d1576040517f08c379a0000000000000000000000000000000000000000000000000000000008152600401620001c89062000a7a565b60405180910390fd5b8160099081620001e291906200086b565b5080600a60006101000a81548161ffff021916908361ffff1602179055505050620002176000801b336200028360201b60201c565b620002497f65d7a28e3265b37a6474929f336521b332c1681b933f6cb9f3376673440d862a336200028360201b60201c565b6200027b7f9f2df0fed2c77648de5860a4cc508cd0818c85b8b8a1ab4ceeef8d981c8956a6336200028360201b60201c565b505062000a9c565b6200029582826200037560201b60201c565b620003715760016008600084815260200190815260200160002060000160008373ffffffffffffffffffffffffffffffffffffffff1673ffffffffffffffffffffffffffffffffffffffff16815260200190815260200160002060006101000a81548160ff02191690831515021790555062000316620003e060201b60201c565b73ffffffffffffffffffffffffffffffffffffffff168173ffffffffffffffffffffffffffffffffffffffff16837f2f8788117e7eff1d82e926ec794901d17c78024a50270940304540a733656f0d60405160405180910390a45b5050565b60006008600084815260200190815260200160002060000160008373ffffffffffffffffffffffffffffffffffffffff1673ffffffffffffffffffffffffffffffffffffffff16815260200190815260200160002060009054906101000a900460ff16905092915050565b600033905090565b6000604051905090565b600080fd5b600080fd5b600080fd5b600080fd5b6000601f19601f8301169050919050565b7f4e487b7100000000000000000000000000000000000000000000000000000000600052604160045260246000fd5b620004518262000406565b810181811067ffffffffffffffff8211171562000473576200047262000417565b5b80604052505050565b600062000488620003e8565b905062000496828262000446565b919050565b600067ffffffffffffffff821115620004b957620004b862000417565b5b620004c48262000406565b9050602081019050919050565b60005b83811015620004f1578082015181840152602081019050620004d4565b60008484015250505050565b6000620005146200050e846200049b565b6200047c565b90508281526020810184848401111562000533576200053262000401565b5b62000540848285620004d1565b509392505050565b600082601f83011262000560576200055f620003fc565b5b815162000572848260208601620004fd565b91505092915050565b600061ffff82169050919050565b62000594816200057b565b8114620005a057600080fd5b50565b600081519050620005b48162000589565b92915050565b60008060408385031215620005d457620005d3620003f2565b5b600083015167ffffffffffffffff811115620005f557620005f4620003f7565b5b620006038582860162000548565b92505060206200061685828601620005a3565b9150509250929050565b600081519050919050565b7f4e487b7100000000000000000000000000000000000000000000000000000000600052602260045260246000fd5b600060028204905060018216806200067357607f821691505b6020821081036200068957620006886200062b565b5b50919050565b60008190508160005260206000209050919050565b60006020601f8301049050919050565b600082821b905092915050565b600060088302620006f37fffffffffffffffffffffffffffffffffffffffffffffffffffffffffffffffff82620006b4565b620006ff8683620006b4565b95508019841693508086168417925050509392505050565b6000819050919050565b6000819050919050565b60006200074c62000746620007408462000717565b62000721565b62000717565b9050919050565b6000819050919050565b62000768836200072b565b62000780620007778262000753565b848454620006c1565b825550505050565b600090565b6200079762000788565b620007a48184846200075d565b505050565b5b81811015620007cc57620007c06000826200078d565b600181019050620007aa565b5050565b601f8211156200081b57620007e5816200068f565b620007f084620006a4565b8101602085101562000800578190505b620008186200080f85620006a4565b830182620007a9565b50505b505050565b600082821c905092915050565b6000620008406000198460080262000820565b1980831691505092915050565b60006200085b83836200082d565b9150826002028217905092915050565b620008768262000620565b67ffffffffffffffff81111562000892576200089162000417565b5b6200089e82546200065a565b620008ab828285620007d0565b600060209050601f831160018114620008e35760008415620008ce578287015190505b620008da85826200084d565b8655506200094a565b601f198416620008f3866200068f565b60005b828110156200091d57848901518255600182019150602085019450602081019050620008f6565b868310156200093d578489015162000939601f8916826200082d565b8355505b6001600288020188555050505b505050505050565b600082825260208201905092915050565b7f436f6469676f2045505347206465766520657374617220656e7472652031303260008201527f3420652033323736370000000000000000000000000000000000000000000000602082015250565b6000620009c160298362000952565b9150620009ce8262000963565b604082019050919050565b60006020820190508181036000830152620009f481620009b2565b9050919050565b7f4e487b7100000000000000000000000000000000000000000000000000000000600052603260045260246000fd5b7f4465736372697469766f2076617a696f00000000000000000000000000000000600082015250565b600062000a6260108362000952565b915062000a6f8262000a2a565b602082019050919050565b6000602082019050818103600083015262000a958162000a53565b9050919050565b6154808062000aac6000396000f3fe608060405234801561001057600080fd5b50600436106101da5760003560e01c806370a0823111610104578063a22cb465116100a2578063d539139311610071578063d539139314610567578063d547741f14610585578063e63ab1e9146105a1578063e985e9c5146105bf576101da565b8063a22cb465146104cf578063a6296953146104eb578063b88d4fde1461051b578063c87b56dd14610537576101da565b80638456cb59116100de5780638456cb591461045957806391d148541461046357806395d89b4114610493578063a217fddf146104b1576101da565b806370a08231146103c957806376e37153146103f95780638087298714610429576101da565b80632af0616a1161017c57806342842e0e1161014b57806342842e0e1461034157806355f150f11461035d5780635c975abb1461037b5780636352211e14610399576101da565b80632af0616a146102e35780632f2ff15d146102ff57806336568abe1461031b5780633f4ba83a14610337576101da565b8063095ea7b3116101b8578063095ea7b31461025d57806323b872dd14610279578063248a9ca314610295578063254f0fc4146102c5576101da565b806301ffc9a7146101df57806306fdde031461020f578063081812fc1461022d575b600080fd5b6101f960048036038101906101f491906137ab565b6105ef565b60405161020691906137f3565b60405180910390f35b610217610601565b604051610224919061389e565b60405180910390f35b610247600480360381019061024291906138f6565b610693565b6040516102549190613964565b60405180910390f35b610277600480360381019061027291906139ab565b6106d9565b005b610293600480360381019061028e91906139eb565b6107f0565b005b6102af60048036038101906102aa9190613a74565b610850565b6040516102bc9190613ab0565b60405180910390f35b6102cd610870565b6040516102da9190613ae8565b60405180910390f35b6102fd60048036038101906102f89190613cd9565b610884565b005b61031960048036038101906103149190613d64565b6108eb565b005b61033560048036038101906103309190613d64565b61090c565b005b61033f61098f565b005b61035b600480360381019061035691906139eb565b6109c4565b005b6103656109e4565b604051610372919061389e565b60405180910390f35b610383610a72565b60405161039091906137f3565b60405180910390f35b6103b360048036038101906103ae91906138f6565b610a89565b6040516103c09190613964565b60405180910390f35b6103e360048036038101906103de9190613da4565b610b0f565b6040516103f09190613de0565b60405180910390f35b610413600480360381019061040e9190613dfb565b610bc6565b6040516104209190613f16565b60405180910390f35b610443600480360381019061043e9190613dfb565b610ddb565b6040516104509190613de0565b60405180910390f35b610461610df6565b005b61047d60048036038101906104789190613d64565b610e2b565b60405161048a91906137f3565b60405180910390f35b61049b610e96565b6040516104a8919061389e565b60405180910390f35b6104b9610f28565b6040516104c69190613ab0565b60405180910390f35b6104e960048036038101906104e49190613f64565b610f2f565b005b61050560048036038101906105009190613dfb565b610f45565b6040516105129190613f16565b60405180910390f35b61053560048036038101906105309190613fa4565b6112a3565b005b610551600480360381019061054c91906138f6565b611305565b60405161055e919061389e565b60405180910390f35b61056f611317565b60405161057c9190613ab0565b60405180910390f35b61059f600480360381019061059a9190613d64565b61133b565b005b6105a961135c565b6040516105b69190613ab0565b60405180910390f35b6105d960048036038101906105d49190614027565b611380565b6040516105e691906137f3565b60405180910390f35b60006105fa82611414565b9050919050565b60606000805461061090614096565b80601f016020809104026020016040519081016040528092919081815260200182805461063c90614096565b80156106895780601f1061065e57610100808354040283529160200191610689565b820191906000526020600020905b81548152906001019060200180831161066c57829003601f168201915b5050505050905090565b600061069e8261148e565b6004600083815260200190815260200160002060009054906101000a900473ffffffffffffffffffffffffffffffffffffffff169050919050565b60006106e482610a89565b90508073ffffffffffffffffffffffffffffffffffffffff168373ffffffffffffffffffffffffffffffffffffffff1603610754576040517f08c379a000000000000000000000000000000000000000000000000000000000815260040161074b90614139565b60405180910390fd5b8073ffffffffffffffffffffffffffffffffffffffff166107736114d9565b73ffffffffffffffffffffffffffffffffffffffff1614806107a257506107a18161079c6114d9565b611380565b5b6107e1576040517f08c379a00000000000000000000000000000000000000000000000000000000081526004016107d8906141cb565b60405180910390fd5b6107eb83836114e1565b505050565b6108016107fb6114d9565b8261159a565b610840576040517f08c379a00000000000000000000000000000000000000000000000000000000081526004016108379061425d565b60405180910390fd5b61084b83838361162f565b505050565b600060086000838152602001908152602001600020600101549050919050565b600a60009054906101000a900461ffff1681565b7f9f2df0fed2c77648de5860a4cc508cd0818c85b8b8a1ab4ceeef8d981c8956a66108ae81611928565b6108b8601d61193c565b60006108c4601d611952565b90506108d08184611960565b6108da8582611c5b565b6108e48185611c79565b5050505050565b6108f482610850565b6108fd81611928565b6109078383611ce6565b505050565b6109146114d9565b73ffffffffffffffffffffffffffffffffffffffff168173ffffffffffffffffffffffffffffffffffffffff1614610981576040517f08c379a0000000000000000000000000000000000000000000000000000000008152600401610978906142ef565b60405180910390fd5b61098b8282611dc7565b5050565b7f65d7a28e3265b37a6474929f336521b332c1681b933f6cb9f3376673440d862a6109b981611928565b6109c1611ea9565b50565b6109df838383604051806020016040528060008152506112a3565b505050565b600980546109f190614096565b80601f0160208091040260200160405190810160405280929190818152602001828054610a1d90614096565b8015610a6a5780601f10610a3f57610100808354040283529160200191610a6a565b820191906000526020600020905b815481529060010190602001808311610a4d57829003601f168201915b505050505081565b6000600760009054906101000a900460ff16905090565b600080610a9583611f0c565b9050600073ffffffffffffffffffffffffffffffffffffffff168173ffffffffffffffffffffffffffffffffffffffff1603610b06576040517f08c379a0000000000000000000000000000000000000000000000000000000008152600401610afd9061435b565b60405180910390fd5b80915050919050565b60008073ffffffffffffffffffffffffffffffffffffffff168273ffffffffffffffffffffffffffffffffffffffff1603610b7f576040517f08c379a0000000000000000000000000000000000000000000000000000000008152600401610b76906143ed565b60405180910390fd5b600360008373ffffffffffffffffffffffffffffffffffffffff1673ffffffffffffffffffffffffffffffffffffffff168152602001908152602001600020549050919050565b60606000610bd383611f49565b9050600467ffffffffffffffff811115610bf057610bef613b0d565b5b604051908082528060200260200182016040528015610c1e5781602001602082028036833780820191505090505b50915080600101600060048110610c3857610c3761440d565b5b600491828204019190066008029054906101000a900467ffffffffffffffff1682600081518110610c6c57610c6b61440d565b5b602002602001019067ffffffffffffffff16908167ffffffffffffffff168152505080600101600160048110610ca557610ca461440d565b5b600491828204019190066008029054906101000a900467ffffffffffffffff1682600181518110610cd957610cd861440d565b5b602002602001019067ffffffffffffffff16908167ffffffffffffffff168152505080600101600260048110610d1257610d1161440d565b5b600491828204019190066008029054906101000a900467ffffffffffffffff1682600281518110610d4657610d4561440d565b5b602002602001019067ffffffffffffffff16908167ffffffffffffffff168152505080600101600360048110610d7f57610d7e61440d565b5b600491828204019190066008029054906101000a900467ffffffffffffffff1682600381518110610db357610db261440d565b5b602002602001019067ffffffffffffffff16908167ffffffffffffffff168152505050919050565b600080610de783611f49565b90508060000154915050919050565b7f65d7a28e3265b37a6474929f336521b332c1681b933f6cb9f3376673440d862a610e2081611928565b610e28612022565b50565b60006008600084815260200190815260200160002060000160008373ffffffffffffffffffffffffffffffffffffffff1673ffffffffffffffffffffffffffffffffffffffff16815260200190815260200160002060009054906101000a900460ff16905092915050565b606060018054610ea590614096565b80601f0160208091040260200160405190810160405280929190818152602001828054610ed190614096565b8015610f1e5780601f10610ef357610100808354040283529160200191610f1e565b820191906000526020600020905b815481529060010190602001808311610f0157829003601f168201915b5050505050905090565b6000801b81565b610f41610f3a6114d9565b8383612085565b5050565b6060600082600081518110610f5d57610f5c61440d565b5b602001015160f81c60f81b60f81c905060006007600485600181518110610f8757610f8661440d565b5b602001015160f81c60f81b60f81c60ff16901c1690506000600b8260ff1660068110610fb657610fb561440d565b5b60030201905060008060409050600381610fd09190614478565b9050806002610fdf91906145e0565b6007851660ff16610ff0919061462b565b82610ffb919061466d565b91506000600490505b8560ff168160ff16101561115f576000611020896001846121f1565b90508460020160008260ff1660ff168152602001908152602001600020945060028361104c9190614478565b925082600261105b91906145e0565b6003821660ff1661106c919061462b565b84611077919061466d565b935060008560000154111561114a576001836110939190614478565b92508260026110a291906145e0565b60016110ae919061462b565b846110b9919061466d565b9350600167ffffffffffffffff8111156110d6576110d5613b0d565b5b6040519080825280602002602001820160405280156111045781602001602082028036833780820191505090505b509750838860008151811061111c5761111b61440d565b5b602002602001019067ffffffffffffffff16908167ffffffffffffffff16815250505050505050505061129e565b5060028161115891906146a9565b9050611004565b506000805b60048160ff1610156111c957846001018160ff16600481106111895761118861440d565b5b600491828204019190066008029054906101000a900467ffffffffffffffff16826111b4919061466d565b915080806111c1906146de565b915050611164565b5060008167ffffffffffffffff160361123357600067ffffffffffffffff8111156111f7576111f6613b0d565b5b6040519080825280602002602001820160405280156112255781602001602082028036833780820191505090505b50965050505050505061129e565b8067ffffffffffffffff1667ffffffffffffffff81111561125757611256613b0d565b5b6040519080825280602002602001820160405280156112855781602001602082028036833780820191505090505b50965061129684848460008b61225b565b505050505050505b919050565b6112b46112ae6114d9565b8361159a565b6112f3576040517f08c379a00000000000000000000000000000000000000000000000000000000081526004016112ea9061425d565b60405180910390fd5b6112ff84848484612407565b50505050565b606061131082612463565b9050919050565b7f9f2df0fed2c77648de5860a4cc508cd0818c85b8b8a1ab4ceeef8d981c8956a681565b61134482610850565b61134d81611928565b6113578383611dc7565b505050565b7f65d7a28e3265b37a6474929f336521b332c1681b933f6cb9f3376673440d862a81565b6000600560008473ffffffffffffffffffffffffffffffffffffffff1673ffffffffffffffffffffffffffffffffffffffff16815260200190815260200160002060008373ffffffffffffffffffffffffffffffffffffffff1673ffffffffffffffffffffffffffffffffffffffff16815260200190815260200160002060009054906101000a900460ff16905092915050565b60007f7965db0b000000000000000000000000000000000000000000000000000000007bffffffffffffffffffffffffffffffffffffffffffffffffffffffff1916827bffffffffffffffffffffffffffffffffffffffffffffffffffffffff19161480611487575061148682612575565b5b9050919050565b61149781612657565b6114d6576040517f08c379a00000000000000000000000000000000000000000000000000000000081526004016114cd9061435b565b60405180910390fd5b50565b600033905090565b816004600083815260200190815260200160002060006101000a81548173ffffffffffffffffffffffffffffffffffffffff021916908373ffffffffffffffffffffffffffffffffffffffff160217905550808273ffffffffffffffffffffffffffffffffffffffff1661155483610a89565b73ffffffffffffffffffffffffffffffffffffffff167f8c5be1e5ebec7d5bd14f71427d1e84f3dd0314c0f7b2291e5b200ac8c7c3b92560405160405180910390a45050565b6000806115a683610a89565b90508073ffffffffffffffffffffffffffffffffffffffff168473ffffffffffffffffffffffffffffffffffffffff1614806115e857506115e78185611380565b5b8061162657508373ffffffffffffffffffffffffffffffffffffffff1661160e84610693565b73ffffffffffffffffffffffffffffffffffffffff16145b91505092915050565b8273ffffffffffffffffffffffffffffffffffffffff1661164f82610a89565b73ffffffffffffffffffffffffffffffffffffffff16146116a5576040517f08c379a000000000000000000000000000000000000000000000000000000000815260040161169c90614779565b60405180910390fd5b600073ffffffffffffffffffffffffffffffffffffffff168273ffffffffffffffffffffffffffffffffffffffff1603611714576040517f08c379a000000000000000000000000000000000000000000000000000000000815260040161170b9061480b565b60405180910390fd5b6117218383836001612698565b8273ffffffffffffffffffffffffffffffffffffffff1661174182610a89565b73ffffffffffffffffffffffffffffffffffffffff1614611797576040517f08c379a000000000000000000000000000000000000000000000000000000000815260040161178e90614779565b60405180910390fd5b6004600082815260200190815260200160002060006101000a81549073ffffffffffffffffffffffffffffffffffffffff02191690556001600360008573ffffffffffffffffffffffffffffffffffffffff1673ffffffffffffffffffffffffffffffffffffffff168152602001908152602001600020600082825403925050819055506001600360008473ffffffffffffffffffffffffffffffffffffffff1673ffffffffffffffffffffffffffffffffffffffff16815260200190815260200160002060008282540192505081905550816002600083815260200190815260200160002060006101000a81548173ffffffffffffffffffffffffffffffffffffffff021916908373ffffffffffffffffffffffffffffffffffffffff160217905550808273ffffffffffffffffffffffffffffffffffffffff168473ffffffffffffffffffffffffffffffffffffffff167fddf252ad1be2c89b69c2b068fc378daa952ba7f163c4a11628f55a4df523b3ef60405160405180910390a461192383838360016126b2565b505050565b611939816119346114d9565b6126b8565b50565b6001816000016000828254019250508190555050565b600081600001549050919050565b600082116119a3576040517f08c379a000000000000000000000000000000000000000000000000000000000815260040161199a9061489d565b60405180910390fd5b6000816000815181106119b9576119b861440d565b5b602001015160f81c60f81b60f81c905060006002826119d891906148ec565b60ff1614611a1b576040517f08c379a0000000000000000000000000000000000000000000000000000000008152600401611a1290614969565b60405180910390fd5b60008160ff1603611b145760005b8251811015611b0e576000838281518110611a4757611a4661440d565b5b602001015160f81c60f81b60f81c9050600182611a649190614989565b915060008160ff16118015611a8857506000600282611a8391906148ec565b60ff16145b611ac7576040517f08c379a0000000000000000000000000000000000000000000000000000000008152600401611abe90614a09565b60405180910390fd5b611ad38583838761273d565b60016008600183611ae49190614478565b611aee9190614a29565b611af891906146a9565b60ff1682611b069190614989565b915050611a29565b50611c56565b6000611b2082846127a2565b905060008060026008600186611b369190614478565b611b409190614a29565b611b4a91906146a9565b60ff1690505b8451811015611c47576000858281518110611b6e57611b6d61440d565b5b602001015160f81c60f81b60f81c9050600182611b8b9190614989565b915060008160ff16118015611baf57506000600282611baa91906148ec565b60ff16145b611bee576040517f08c379a0000000000000000000000000000000000000000000000000000000008152600401611be590614a09565b60405180910390fd5b611bfd8785848460008b61289c565b600183611c0a91906146a9565b925060016008600183611c1d9190614478565b611c279190614a29565b611c3191906146a9565b60ff1682611c3f9190614989565b915050611b50565b611c52848684612a66565b5050505b505050565b611c75828260405180602001604052806000815250612bcb565b5050565b611c8282612657565b611cc1576040517f08c379a0000000000000000000000000000000000000000000000000000000008152600401611cb890614acc565b60405180910390fd5b80600660008481526020019081526020016000209081611ce19190614c98565b505050565b611cf08282610e2b565b611dc35760016008600084815260200190815260200160002060000160008373ffffffffffffffffffffffffffffffffffffffff1673ffffffffffffffffffffffffffffffffffffffff16815260200190815260200160002060006101000a81548160ff021916908315150217905550611d686114d9565b73ffffffffffffffffffffffffffffffffffffffff168173ffffffffffffffffffffffffffffffffffffffff16837f2f8788117e7eff1d82e926ec794901d17c78024a50270940304540a733656f0d60405160405180910390a45b5050565b611dd18282610e2b565b15611ea55760006008600084815260200190815260200160002060000160008373ffffffffffffffffffffffffffffffffffffffff1673ffffffffffffffffffffffffffffffffffffffff16815260200190815260200160002060006101000a81548160ff021916908315150217905550611e4a6114d9565b73ffffffffffffffffffffffffffffffffffffffff168173ffffffffffffffffffffffffffffffffffffffff16837ff6391f5c32d9c69d2a47ea670b442974b53935d1edc7fd64eb21e047a839171b60405160405180910390a45b5050565b611eb1612c26565b6000600760006101000a81548160ff0219169083151502179055507f5db9ee0a495bf2e6ff9c91a7834c1ba4fdd244a5e8aa4e537bd38aeae4b073aa611ef56114d9565b604051611f029190613964565b60405180910390a1565b60006002600083815260200190815260200160002060009054906101000a900473ffffffffffffffffffffffffffffffffffffffff169050919050565b60008082600081518110611f6057611f5f61440d565b5b602001015160f81c60f81b60f81c905060006007600485600181518110611f8a57611f8961440d565b5b602001015160f81c60f81b60f81c60ff16901c1690506000600b8260ff1660068110611fb957611fb861440d565b5b6003020190506000600490505b8360ff168160ff161015612016576000611fe2876001846121f1565b90508260020160008260ff1660ff16815260200190815260200160002092505060028161200f91906146a9565b9050611fc6565b50809350505050919050565b61202a612c6f565b6001600760006101000a81548160ff0219169083151502179055507f62e78cea01bee320cd4e420270b5ea74000d11b0c9f74754ebdbfc544b05a25861206e6114d9565b60405161207b9190613964565b60405180910390a1565b8173ffffffffffffffffffffffffffffffffffffffff168373ffffffffffffffffffffffffffffffffffffffff16036120f3576040517f08c379a00000000000000000000000000000000000000000000000000000000081526004016120ea90614db6565b60405180910390fd5b80600560008573ffffffffffffffffffffffffffffffffffffffff1673ffffffffffffffffffffffffffffffffffffffff16815260200190815260200160002060008473ffffffffffffffffffffffffffffffffffffffff1673ffffffffffffffffffffffffffffffffffffffff16815260200190815260200160002060006101000a81548160ff0219169083151502179055508173ffffffffffffffffffffffffffffffffffffffff168373ffffffffffffffffffffffffffffffffffffffff167f17307eab39ab6107e8899845ad3d59bd9653f200f220920489ca2b5937696c31836040516121e491906137f3565b60405180910390a3505050565b6000600360088361220291906148ec565b600661220e9190614478565b60ff1685856008866122209190614a29565b60ff1661222d9190614989565b8151811061223e5761223d61440d565b5b602001015160f81c60f81b60f81c60ff16901c1690509392505050565b6000806000905060005b60048160ff1610156123f9576000886001018260ff166004811061228c5761228b61440d565b5b600491828204019190066008029054906101000a900467ffffffffffffffff1667ffffffffffffffff1611156123e65760008860020160008360ff1660ff168152602001908152602001600020905060006002886122ea9190614478565b60026122f691906145e0565b6003841660ff16612307919061462b565b89612312919061466d565b90506000826000015411156123b15760038861232e9190614478565b600261233a91906145e0565b6001612346919061462b565b81612351919061466d565b905080868589612361919061466d565b67ffffffffffffffff168151811061237c5761237b61440d565b5b602002602001019067ffffffffffffffff16908167ffffffffffffffff168152505083806123a990614dd6565b9450506123e3565b6123d5828260028b6123c39190614478565b878b6123cf919061466d565b8a61225b565b846123e0919061466d565b93505b50505b80806123f1906146de565b915050612265565b508091505095945050505050565b61241284848461162f565b61241e84848484612cb9565b61245d576040517f08c379a000000000000000000000000000000000000000000000000000000000815260040161245490614e78565b60405180910390fd5b50505050565b606061246e8261148e565b600060066000848152602001908152602001600020805461248e90614096565b80601f01602080910402602001604051908101604052809291908181526020018280546124ba90614096565b80156125075780601f106124dc57610100808354040283529160200191612507565b820191906000526020600020905b8154815290600101906020018083116124ea57829003601f168201915b505050505090506000612518612e40565b9050600081510361252d578192505050612570565b60008251111561256257808260405160200161254a929190614ed4565b60405160208183030381529060405292505050612570565b61256b84612e7d565b925050505b919050565b60007f80ac58cd000000000000000000000000000000000000000000000000000000007bffffffffffffffffffffffffffffffffffffffffffffffffffffffff1916827bffffffffffffffffffffffffffffffffffffffffffffffffffffffff1916148061264057507f5b5e139f000000000000000000000000000000000000000000000000000000007bffffffffffffffffffffffffffffffffffffffffffffffffffffffff1916827bffffffffffffffffffffffffffffffffffffffffffffffffffffffff1916145b80612650575061264f82612ee5565b5b9050919050565b60008073ffffffffffffffffffffffffffffffffffffffff1661267983611f0c565b73ffffffffffffffffffffffffffffffffffffffff1614159050919050565b6126a0612c6f565b6126ac84848484612f4f565b50505050565b50505050565b6126c28282610e2b565b612739576126cf81613075565b6126dd8360001c60206130a2565b6040516020016126ee929190614f90565b6040516020818303038152906040526040517f08c379a0000000000000000000000000000000000000000000000000000000008152600401612730919061389e565b60405180910390fd5b5050565b6000600760048386815181106127565761275561440d565b5b602001015160f81c60f81b60f81c60ff16901c1690506000600b8260ff16600681106127855761278461440d565b5b60030201905061279a8682878760048861289c565b505050505050565b60008060076004846001815181106127bd576127bc61440d565b5b602001015160f81c60f81b60f81c60ff16901c1690506000600b8260ff16600681106127ec576127eb61440d565b5b6003020190506000600490505b8560ff168160ff161015612890576000612815866001846121f1565b90508260020160008260ff1660ff1681526020019081526020016000209250600083600001541461287b576040517f08c379a00000000000000000000000000000000000000000000000000000000081526004016128729061503c565b60405180910390fd5b5060028161288991906146a9565b90506127f9565b50809250505092915050565b600085905060008390505b8460ff168160ff1610156129ab5760006128c28488846121f1565b90506001836001018260ff16600481106128df576128de61440d565b5b600491828204019190066008028282829054906101000a900467ffffffffffffffff1661290c919061466d565b92506101000a81548167ffffffffffffffff021916908367ffffffffffffffff1602179055508260020160008260ff1660ff16815260200190815260200160002092506000836000015414612996576040517f08c379a000000000000000000000000000000000000000000000000000000000815260040161298d9061503c565b60405180910390fd5b506002816129a491906146a9565b90506128a7565b5060005b60048160ff161015612a53576000826001018260ff16600481106129d6576129d561440d565b5b600491828204019190066008029054906101000a900467ffffffffffffffff1667ffffffffffffffff1614612a40576040517f08c379a0000000000000000000000000000000000000000000000000000000008152600401612a37906150ce565b60405180910390fd5b8080612a4b906146de565b9150506129af565b5086816000018190555050505050505050565b60006007600484600181518110612a8057612a7f61440d565b5b602001015160f81c60f81b60f81c60ff16901c1690506000600b8260ff1660068110612aaf57612aae61440d565b5b6003020190506000600490505b8560ff168160ff161015612bc3576000612ad8866001846121f1565b90508460ff16836001018260ff1660048110612af757612af661440d565b5b600491828204019190066008028282829054906101000a900467ffffffffffffffff16612b24919061466d565b92506101000a81548167ffffffffffffffff021916908367ffffffffffffffff1602179055508260020160008260ff1660ff16815260200190815260200160002092506000836000015414612bae576040517f08c379a0000000000000000000000000000000000000000000000000000000008152600401612ba59061503c565b60405180910390fd5b50600281612bbc91906146a9565b9050612abc565b505050505050565b612bd583836132de565b612be26000848484612cb9565b612c21576040517f08c379a0000000000000000000000000000000000000000000000000000000008152600401612c1890614e78565b60405180910390fd5b505050565b612c2e610a72565b612c6d576040517f08c379a0000000000000000000000000000000000000000000000000000000008152600401612c649061513a565b60405180910390fd5b565b612c77610a72565b15612cb7576040517f08c379a0000000000000000000000000000000000000000000000000000000008152600401612cae906151a6565b60405180910390fd5b565b6000612cda8473ffffffffffffffffffffffffffffffffffffffff166134fb565b15612e33578373ffffffffffffffffffffffffffffffffffffffff1663150b7a02612d036114d9565b8786866040518563ffffffff1660e01b8152600401612d25949392919061521b565b6020604051808303816000875af1925050508015612d6157506040513d601f19601f82011682018060405250810190612d5e919061527c565b60015b612de3573d8060008114612d91576040519150601f19603f3d011682016040523d82523d6000602084013e612d96565b606091505b506000815103612ddb576040517f08c379a0000000000000000000000000000000000000000000000000000000008152600401612dd290614e78565b60405180910390fd5b805181602001fd5b63150b7a0260e01b7bffffffffffffffffffffffffffffffffffffffffffffffffffffffff1916817bffffffffffffffffffffffffffffffffffffffffffffffffffffffff191614915050612e38565b600190505b949350505050565b60606040518060400160405280600781526020017f697066733a2f2f00000000000000000000000000000000000000000000000000815250905090565b6060612e888261148e565b6000612e92612e40565b90506000815111612eb25760405180602001604052806000815250612edd565b80612ebc8461351e565b604051602001612ecd929190614ed4565b6040516020818303038152906040525b915050919050565b60007f01ffc9a7000000000000000000000000000000000000000000000000000000007bffffffffffffffffffffffffffffffffffffffffffffffffffffffff1916827bffffffffffffffffffffffffffffffffffffffffffffffffffffffff1916149050919050565b600181111561306f57600073ffffffffffffffffffffffffffffffffffffffff168473ffffffffffffffffffffffffffffffffffffffff1614612fe35780600360008673ffffffffffffffffffffffffffffffffffffffff1673ffffffffffffffffffffffffffffffffffffffff1681526020019081526020016000206000828254612fdb91906152a9565b925050819055505b600073ffffffffffffffffffffffffffffffffffffffff168373ffffffffffffffffffffffffffffffffffffffff161461306e5780600360008573ffffffffffffffffffffffffffffffffffffffff1673ffffffffffffffffffffffffffffffffffffffff16815260200190815260200160002060008282546130669190614989565b925050819055505b5b50505050565b606061309b8273ffffffffffffffffffffffffffffffffffffffff16601460ff166130a2565b9050919050565b6060600060028360026130b5919061462b565b6130bf9190614989565b67ffffffffffffffff8111156130d8576130d7613b0d565b5b6040519080825280601f01601f19166020018201604052801561310a5781602001600182028036833780820191505090505b5090507f3000000000000000000000000000000000000000000000000000000000000000816000815181106131425761314161440d565b5b60200101907effffffffffffffffffffffffffffffffffffffffffffffffffffffffffffff1916908160001a9053507f7800000000000000000000000000000000000000000000000000000000000000816001815181106131a6576131a561440d565b5b60200101907effffffffffffffffffffffffffffffffffffffffffffffffffffffffffffff1916908160001a905350600060018460026131e6919061462b565b6131f09190614989565b90505b6001811115613290577f3031323334353637383961626364656600000000000000000000000000000000600f8616601081106132325761323161440d565b5b1a60f81b8282815181106132495761324861440d565b5b60200101907effffffffffffffffffffffffffffffffffffffffffffffffffffffffffffff1916908160001a905350600485901c945080613289906152dd565b90506131f3565b50600084146132d4576040517f08c379a00000000000000000000000000000000000000000000000000000000081526004016132cb90615352565b60405180910390fd5b8091505092915050565b600073ffffffffffffffffffffffffffffffffffffffff168273ffffffffffffffffffffffffffffffffffffffff160361334d576040517f08c379a0000000000000000000000000000000000000000000000000000000008152600401613344906153be565b60405180910390fd5b61335681612657565b15613396576040517f08c379a000000000000000000000000000000000000000000000000000000000815260040161338d9061542a565b60405180910390fd5b6133a4600083836001612698565b6133ad81612657565b156133ed576040517f08c379a00000000000000000000000000000000000000000000000000000000081526004016133e49061542a565b60405180910390fd5b6001600360008473ffffffffffffffffffffffffffffffffffffffff1673ffffffffffffffffffffffffffffffffffffffff16815260200190815260200160002060008282540192505081905550816002600083815260200190815260200160002060006101000a81548173ffffffffffffffffffffffffffffffffffffffff021916908373ffffffffffffffffffffffffffffffffffffffff160217905550808273ffffffffffffffffffffffffffffffffffffffff16600073ffffffffffffffffffffffffffffffffffffffff167fddf252ad1be2c89b69c2b068fc378daa952ba7f163c4a11628f55a4df523b3ef60405160405180910390a46134f76000838360016126b2565b5050565b6000808273ffffffffffffffffffffffffffffffffffffffff163b119050919050565b60606000600161352d846135ec565b01905060008167ffffffffffffffff81111561354c5761354b613b0d565b5b6040519080825280601f01601f19166020018201604052801561357e5781602001600182028036833780820191505090505b509050600082602001820190505b6001156135e1578080600190039150507f3031323334353637383961626364656600000000000000000000000000000000600a86061a8153600a85816135d5576135d46148bd565b5b0494506000850361358c575b819350505050919050565b600080600090507a184f03e93ff9f4daa797ed6e38ed64bf6a1f010000000000000000831061364a577a184f03e93ff9f4daa797ed6e38ed64bf6a1f01000000000000000083816136405761363f6148bd565b5b0492506040810190505b6d04ee2d6d415b85acef81000000008310613687576d04ee2d6d415b85acef8100000000838161367d5761367c6148bd565b5b0492506020810190505b662386f26fc1000083106136b657662386f26fc1000083816136ac576136ab6148bd565b5b0492506010810190505b6305f5e10083106136df576305f5e10083816136d5576136d46148bd565b5b0492506008810190505b61271083106137045761271083816136fa576136f96148bd565b5b0492506004810190505b60648310613727576064838161371d5761371c6148bd565b5b0492506002810190505b600a8310613736576001810190505b80915050919050565b6000604051905090565b600080fd5b600080fd5b60007fffffffff0000000000000000000000000000000000000000000000000000000082169050919050565b61378881613753565b811461379357600080fd5b50565b6000813590506137a58161377f565b92915050565b6000602082840312156137c1576137c0613749565b5b60006137cf84828501613796565b91505092915050565b60008115159050919050565b6137ed816137d8565b82525050565b600060208201905061380860008301846137e4565b92915050565b600081519050919050565b600082825260208201905092915050565b60005b8381101561384857808201518184015260208101905061382d565b60008484015250505050565b6000601f19601f8301169050919050565b60006138708261380e565b61387a8185613819565b935061388a81856020860161382a565b61389381613854565b840191505092915050565b600060208201905081810360008301526138b88184613865565b905092915050565b6000819050919050565b6138d3816138c0565b81146138de57600080fd5b50565b6000813590506138f0816138ca565b92915050565b60006020828403121561390c5761390b613749565b5b600061391a848285016138e1565b91505092915050565b600073ffffffffffffffffffffffffffffffffffffffff82169050919050565b600061394e82613923565b9050919050565b61395e81613943565b82525050565b60006020820190506139796000830184613955565b92915050565b61398881613943565b811461399357600080fd5b50565b6000813590506139a58161397f565b92915050565b600080604083850312156139c2576139c1613749565b5b60006139d085828601613996565b92505060206139e1858286016138e1565b9150509250929050565b600080600060608486031215613a0457613a03613749565b5b6000613a1286828701613996565b9350506020613a2386828701613996565b9250506040613a34868287016138e1565b9150509250925092565b6000819050919050565b613a5181613a3e565b8114613a5c57600080fd5b50565b600081359050613a6e81613a48565b92915050565b600060208284031215613a8a57613a89613749565b5b6000613a9884828501613a5f565b91505092915050565b613aaa81613a3e565b82525050565b6000602082019050613ac56000830184613aa1565b92915050565b600061ffff82169050919050565b613ae281613acb565b82525050565b6000602082019050613afd6000830184613ad9565b92915050565b600080fd5b600080fd5b7f4e487b7100000000000000000000000000000000000000000000000000000000600052604160045260246000fd5b613b4582613854565b810181811067ffffffffffffffff82111715613b6457613b63613b0d565b5b80604052505050565b6000613b7761373f565b9050613b838282613b3c565b919050565b600067ffffffffffffffff821115613ba357613ba2613b0d565b5b613bac82613854565b9050602081019050919050565b82818337600083830152505050565b6000613bdb613bd684613b88565b613b6d565b905082815260208101848484011115613bf757613bf6613b08565b5b613c02848285613bb9565b509392505050565b600082601f830112613c1f57613c1e613b03565b5b8135613c2f848260208601613bc8565b91505092915050565b600067ffffffffffffffff821115613c5357613c52613b0d565b5b613c5c82613854565b9050602081019050919050565b6000613c7c613c7784613c38565b613b6d565b905082815260208101848484011115613c9857613c97613b08565b5b613ca3848285613bb9565b509392505050565b600082601f830112613cc057613cbf613b03565b5b8135613cd0848260208601613c69565b91505092915050565b600080600060608486031215613cf257613cf1613749565b5b6000613d0086828701613996565b935050602084013567ffffffffffffffff811115613d2157613d2061374e565b5b613d2d86828701613c0a565b925050604084013567ffffffffffffffff811115613d4e57613d4d61374e565b5b613d5a86828701613cab565b9150509250925092565b60008060408385031215613d7b57613d7a613749565b5b6000613d8985828601613a5f565b9250506020613d9a85828601613996565b9150509250929050565b600060208284031215613dba57613db9613749565b5b6000613dc884828501613996565b91505092915050565b613dda816138c0565b82525050565b6000602082019050613df56000830184613dd1565b92915050565b600060208284031215613e1157613e10613749565b5b600082013567ffffffffffffffff811115613e2f57613e2e61374e565b5b613e3b84828501613cab565b91505092915050565b600081519050919050565b600082825260208201905092915050565b6000819050602082019050919050565b600067ffffffffffffffff82169050919050565b613e8d81613e70565b82525050565b6000613e9f8383613e84565b60208301905092915050565b6000602082019050919050565b6000613ec382613e44565b613ecd8185613e4f565b9350613ed883613e60565b8060005b83811015613f09578151613ef08882613e93565b9750613efb83613eab565b925050600181019050613edc565b5085935050505092915050565b60006020820190508181036000830152613f308184613eb8565b905092915050565b613f41816137d8565b8114613f4c57600080fd5b50565b600081359050613f5e81613f38565b92915050565b60008060408385031215613f7b57613f7a613749565b5b6000613f8985828601613996565b9250506020613f9a85828601613f4f565b9150509250929050565b60008060008060808587031215613fbe57613fbd613749565b5b6000613fcc87828801613996565b9450506020613fdd87828801613996565b9350506040613fee878288016138e1565b925050606085013567ffffffffffffffff81111561400f5761400e61374e565b5b61401b87828801613cab565b91505092959194509250565b6000806040838503121561403e5761403d613749565b5b600061404c85828601613996565b925050602061405d85828601613996565b9150509250929050565b7f4e487b7100000000000000000000000000000000000000000000000000000000600052602260045260246000fd5b600060028204905060018216806140ae57607f821691505b6020821081036140c1576140c0614067565b5b50919050565b7f4552433732313a20617070726f76616c20746f2063757272656e74206f776e6560008201527f7200000000000000000000000000000000000000000000000000000000000000602082015250565b6000614123602183613819565b915061412e826140c7565b604082019050919050565b6000602082019050818103600083015261415281614116565b9050919050565b7f4552433732313a20617070726f76652063616c6c6572206973206e6f7420746f60008201527f6b656e206f776e6572206f7220617070726f76656420666f7220616c6c000000602082015250565b60006141b5603d83613819565b91506141c082614159565b604082019050919050565b600060208201905081810360008301526141e4816141a8565b9050919050565b7f4552433732313a2063616c6c6572206973206e6f7420746f6b656e206f776e6560008201527f72206f7220617070726f76656400000000000000000000000000000000000000602082015250565b6000614247602d83613819565b9150614252826141eb565b604082019050919050565b600060208201905081810360008301526142768161423a565b9050919050565b7f416363657373436f6e74726f6c3a2063616e206f6e6c792072656e6f756e636560008201527f20726f6c657320666f722073656c660000000000000000000000000000000000602082015250565b60006142d9602f83613819565b91506142e48261427d565b604082019050919050565b60006020820190508181036000830152614308816142cc565b9050919050565b7f4552433732313a20696e76616c696420746f6b656e2049440000000000000000600082015250565b6000614345601883613819565b91506143508261430f565b602082019050919050565b6000602082019050818103600083015261437481614338565b9050919050565b7f4552433732313a2061646472657373207a65726f206973206e6f74206120766160008201527f6c6964206f776e65720000000000000000000000000000000000000000000000602082015250565b60006143d7602983613819565b91506143e28261437b565b604082019050919050565b60006020820190508181036000830152614406816143ca565b9050919050565b7f4e487b7100000000000000000000000000000000000000000000000000000000600052603260045260246000fd5b600060ff82169050919050565b7f4e487b7100000000000000000000000000000000000000000000000000000000600052601160045260246000fd5b60006144838261443c565b915061448e8361443c565b9250828203905060ff8111156144a7576144a6614449565b5b92915050565b60008160011c9050919050565b6000808291508390505b6001851115614504578086048111156144e0576144df614449565b5b60018516156144ef5780820291505b80810290506144fd856144ad565b94506144c4565b94509492505050565b60008261451d57600190506145d9565b8161452b57600090506145d9565b8160018114614541576002811461454b5761457a565b60019150506145d9565b60ff84111561455d5761455c614449565b5b8360020a91508482111561457457614573614449565b5b506145d9565b5060208310610133831016604e8410600b84101617156145af5782820a9050838111156145aa576145a9614449565b5b6145d9565b6145bc84848460016144ba565b925090508184048111156145d3576145d2614449565b5b81810290505b9392505050565b60006145eb826138c0565b91506145f68361443c565b92506146237fffffffffffffffffffffffffffffffffffffffffffffffffffffffffffffffff848461450d565b905092915050565b6000614636826138c0565b9150614641836138c0565b925082820261464f816138c0565b9150828204841483151761466657614665614449565b5b5092915050565b600061467882613e70565b915061468383613e70565b9250828201905067ffffffffffffffff8111156146a3576146a2614449565b5b92915050565b60006146b48261443c565b91506146bf8361443c565b9250828201905060ff8111156146d8576146d7614449565b5b92915050565b60006146e98261443c565b915060ff82036146fc576146fb614449565b5b600182019050919050565b7f4552433732313a207472616e736665722066726f6d20696e636f72726563742060008201527f6f776e6572000000000000000000000000000000000000000000000000000000602082015250565b6000614763602583613819565b915061476e82614707565b604082019050919050565b6000602082019050818103600083015261479281614756565b9050919050565b7f4552433732313a207472616e7366657220746f20746865207a65726f2061646460008201527f7265737300000000000000000000000000000000000000000000000000000000602082015250565b60006147f5602483613819565b915061480082614799565b604082019050919050565b60006020820190508181036000830152614824816147e8565b9050919050565b7f49442064612070726f7072696564616465206465766520736572206d61696f7260008201527f2071756520300000000000000000000000000000000000000000000000000000602082015250565b6000614887602683613819565b91506148928261482b565b604082019050919050565b600060208201905081810360008301526148b68161487a565b9050919050565b7f4e487b7100000000000000000000000000000000000000000000000000000000600052601260045260246000fd5b60006148f78261443c565b91506149028361443c565b925082614912576149116148bd565b5b828206905092915050565b7f54616d616e686f20646f207072656669786f20696e76616c69646f0000000000600082015250565b6000614953601b83613819565b915061495e8261491d565b602082019050919050565b6000602082019050818103600083015261498281614946565b9050919050565b6000614994826138c0565b915061499f836138c0565b92508282019050808211156149b7576149b6614449565b5b92915050565b7f54616d616e686f20646f20626c6f636f20696e76616c69646f00000000000000600082015250565b60006149f3601983613819565b91506149fe826149bd565b602082019050919050565b60006020820190508181036000830152614a22816149e6565b9050919050565b6000614a348261443c565b9150614a3f8361443c565b925082614a4f57614a4e6148bd565b5b828204905092915050565b7f45524337323155524953746f726167653a2055524920736574206f66206e6f6e60008201527f6578697374656e7420746f6b656e000000000000000000000000000000000000602082015250565b6000614ab6602e83613819565b9150614ac182614a5a565b604082019050919050565b60006020820190508181036000830152614ae581614aa9565b9050919050565b60008190508160005260206000209050919050565b60006020601f8301049050919050565b600082821b905092915050565b600060088302614b4e7fffffffffffffffffffffffffffffffffffffffffffffffffffffffffffffffff82614b11565b614b588683614b11565b95508019841693508086168417925050509392505050565b6000819050919050565b6000614b95614b90614b8b846138c0565b614b70565b6138c0565b9050919050565b6000819050919050565b614baf83614b7a565b614bc3614bbb82614b9c565b848454614b1e565b825550505050565b600090565b614bd8614bcb565b614be3818484614ba6565b505050565b5b81811015614c0757614bfc600082614bd0565b600181019050614be9565b5050565b601f821115614c4c57614c1d81614aec565b614c2684614b01565b81016020851015614c35578190505b614c49614c4185614b01565b830182614be8565b50505b505050565b600082821c905092915050565b6000614c6f60001984600802614c51565b1980831691505092915050565b6000614c888383614c5e565b9150826002028217905092915050565b614ca18261380e565b67ffffffffffffffff811115614cba57614cb9613b0d565b5b614cc48254614096565b614ccf828285614c0b565b600060209050601f831160018114614d025760008415614cf0578287015190505b614cfa8582614c7c565b865550614d62565b601f198416614d1086614aec565b60005b82811015614d3857848901518255600182019150602085019450602081019050614d13565b86831015614d555784890151614d51601f891682614c5e565b8355505b6001600288020188555050505b505050505050565b7f4552433732313a20617070726f766520746f2063616c6c657200000000000000600082015250565b6000614da0601983613819565b9150614dab82614d6a565b602082019050919050565b60006020820190508181036000830152614dcf81614d93565b9050919050565b6000614de182613e70565b915067ffffffffffffffff8203614dfb57614dfa614449565b5b600182019050919050565b7f4552433732313a207472616e7366657220746f206e6f6e20455243373231526560008201527f63656976657220696d706c656d656e7465720000000000000000000000000000602082015250565b6000614e62603283613819565b9150614e6d82614e06565b604082019050919050565b60006020820190508181036000830152614e9181614e55565b9050919050565b600081905092915050565b6000614eae8261380e565b614eb88185614e98565b9350614ec881856020860161382a565b80840191505092915050565b6000614ee08285614ea3565b9150614eec8284614ea3565b91508190509392505050565b7f416363657373436f6e74726f6c3a206163636f756e7420000000000000000000600082015250565b6000614f2e601783614e98565b9150614f3982614ef8565b601782019050919050565b7f206973206d697373696e6720726f6c6520000000000000000000000000000000600082015250565b6000614f7a601183614e98565b9150614f8582614f44565b601182019050919050565b6000614f9b82614f21565b9150614fa78285614ea3565b9150614fb282614f6d565b9150614fbe8284614ea3565b91508190509392505050565b7f526567697374726f2064656e74726f2064652061726561206a6120726567697360008201527f7472616461000000000000000000000000000000000000000000000000000000602082015250565b6000615026602583613819565b915061503182614fca565b604082019050919050565b6000602082019050818103600083015261505581615019565b9050919050565b7f526567697374726f20736f627265706f6520617265612072656769737472616460008201527f6100000000000000000000000000000000000000000000000000000000000000602082015250565b60006150b8602183613819565b91506150c38261505c565b604082019050919050565b600060208201905081810360008301526150e7816150ab565b9050919050565b7f5061757361626c653a206e6f7420706175736564000000000000000000000000600082015250565b6000615124601483613819565b915061512f826150ee565b602082019050919050565b6000602082019050818103600083015261515381615117565b9050919050565b7f5061757361626c653a2070617573656400000000000000000000000000000000600082015250565b6000615190601083613819565b915061519b8261515a565b602082019050919050565b600060208201905081810360008301526151bf81615183565b9050919050565b600081519050919050565b600082825260208201905092915050565b60006151ed826151c6565b6151f781856151d1565b935061520781856020860161382a565b61521081613854565b840191505092915050565b60006080820190506152306000830187613955565b61523d6020830186613955565b61524a6040830185613dd1565b818103606083015261525c81846151e2565b905095945050505050565b6000815190506152768161377f565b92915050565b60006020828403121561529257615291613749565b5b60006152a084828501615267565b91505092915050565b60006152b4826138c0565b91506152bf836138c0565b92508282039050818111156152d7576152d6614449565b5b92915050565b60006152e8826138c0565b9150600082036152fb576152fa614449565b5b600182039050919050565b7f537472696e67733a20686578206c656e67746820696e73756666696369656e74600082015250565b600061533c602083613819565b915061534782615306565b602082019050919050565b6000602082019050818103600083015261536b8161532f565b9050919050565b7f4552433732313a206d696e7420746f20746865207a65726f2061646472657373600082015250565b60006153a8602083613819565b91506153b382615372565b602082019050919050565b600060208201905081810360008301526153d78161539b565b9050919050565b7f4552433732313a20746f6b656e20616c7265616479206d696e74656400000000600082015250565b6000615414601c83613819565b915061541f826153de565b602082019050919050565b6000602082019050818103600083015261544381615407565b905091905056fea2646970667358221220fcbdad3c20ecb38f4460bdc2c49d0a60566387ff43e78089e625400de919d45c64736f6c63430008110033",
  "immutableReferences": {},
  "source": "// SPDX-License-Identifier: MIT\r\npragma solidity ^0.8.9;\r\n\r\nimport \"@openzeppelin/contracts/token/ERC721/ERC721.sol\";\r\nimport \"@openzeppelin/contracts/token/ERC721/extensions/ERC721URIStorage.sol\";\r\nimport \"@openzeppelin/contracts/security/Pausable.sol\";\r\nimport \"@openzeppelin/contracts/access/AccessControl.sol\";\r\nimport \"@openzeppelin/contracts/utils/Counters.sol\";\r\n\r\nimport \"./geo/GeoCellRegistry.sol\";\r\nimport \"./doc/DocumentRegistry.sol\";\r\n\r\n/*\r\n * @author Felipe Louzas\r\n * @notice Implementa registro de imveis.\r\n */\r\ncontract ImovelRegistry is\r\n    ERC721,\r\n    ERC721URIStorage,\r\n    Pausable,\r\n    AccessControl,\r\n    GeoCellRegistry,\r\n    DocumentRegistry\r\n{\r\n    using Counters for Counters.Counter;\r\n\r\n    bytes32 public constant PAUSER_ROLE = keccak256(\"PAUSER_ROLE\");\r\n    bytes32 public constant MINTER_ROLE = keccak256(\"MINTER_ROLE\");\r\n    Counters.Counter private _propIdCounter;\r\n\r\n    constructor(string memory _desc, uint16 _srid)\r\n        ERC721(\"Registro de Imovel\", \"RGI\")\r\n        GeoCellRegistry(_desc, _srid)\r\n    {\r\n        _grantRole(DEFAULT_ADMIN_ROLE, msg.sender);\r\n        _grantRole(PAUSER_ROLE, msg.sender);\r\n        _grantRole(MINTER_ROLE, msg.sender);\r\n    }\r\n\r\n    function _baseURI() internal pure override returns (string memory) {\r\n        return \"ipfs://\";\r\n    }\r\n\r\n    function pause() public onlyRole(PAUSER_ROLE) {\r\n        _pause();\r\n    }\r\n\r\n    function unpause() public onlyRole(PAUSER_ROLE) {\r\n        _unpause();\r\n    }\r\n\r\n    function claimLand(\r\n        address _for,\r\n        string memory _metaUri,\r\n        bytes memory _cellData\r\n    ) public onlyRole(MINTER_ROLE) {\r\n        _propIdCounter.increment(); // first valid property id starts with 1\r\n        uint256 propId = _propIdCounter.current();\r\n        _claimLand(propId, _cellData);\r\n        _safeMint(_for, propId);\r\n        _setTokenURI(propId, _metaUri);\r\n    }\r\n\r\n    function _beforeTokenTransfer(\r\n        address from,\r\n        address to,\r\n        uint256 tokenId,\r\n        uint256 batchSize\r\n    ) internal override whenNotPaused {\r\n        super._beforeTokenTransfer(from, to, tokenId, batchSize);\r\n    }\r\n\r\n    // The following functions are overrides required by Solidity.\r\n\r\n    function _burn(uint256 tokenId)\r\n        internal\r\n        override(ERC721, ERC721URIStorage)\r\n    {\r\n        super._burn(tokenId);\r\n    }\r\n\r\n    function tokenURI(uint256 tokenId)\r\n        public\r\n        view\r\n        override(ERC721, ERC721URIStorage)\r\n        returns (string memory)\r\n    {\r\n        return super.tokenURI(tokenId);\r\n    }\r\n\r\n    function supportsInterface(bytes4 interfaceId)\r\n        public\r\n        view\r\n        override(ERC721, AccessControl)\r\n        returns (bool)\r\n    {\r\n        return super.supportsInterface(interfaceId);\r\n    }\r\n}\r\n",
  "sourcePath": "E:\\Desktop\\devel\\workspaces\\georeg\\georeg-hackathon-web3\\blockchain\\contracts\\ImovelRegistry.sol",
  "compiler": {
    "name": "solc",
    "version": "0.8.17+commit.8df45f5f.Emscripten.clang"
  },
  "schemaVersion": "3.4.11",
  "updatedAt": "2022-12-11T14:26:43.700Z",
  "networkType": "ethereum",
  "devdoc": {
    "kind": "dev",
    "methods": {
      "approve(address,uint256)": {
        "details": "See {IERC721-approve}."
      },
      "balanceOf(address)": {
        "details": "See {IERC721-balanceOf}."
      },
      "getApproved(uint256)": {
        "details": "See {IERC721-getApproved}."
      },
      "getRoleAdmin(bytes32)": {
        "details": "Returns the admin role that controls `role`. See {grantRole} and {revokeRole}. To change a role's admin, use {_setRoleAdmin}."
      },
      "grantRole(bytes32,address)": {
        "details": "Grants `role` to `account`. If `account` had not been already granted `role`, emits a {RoleGranted} event. Requirements: - the caller must have ``role``'s admin role. May emit a {RoleGranted} event."
      },
      "hasRole(bytes32,address)": {
        "details": "Returns `true` if `account` has been granted `role`."
      },
      "isApprovedForAll(address,address)": {
        "details": "See {IERC721-isApprovedForAll}."
      },
      "name()": {
        "details": "See {IERC721Metadata-name}."
      },
      "ownerOf(uint256)": {
        "details": "See {IERC721-ownerOf}."
      },
      "paused()": {
        "details": "Returns true if the contract is paused, and false otherwise."
      },
      "renounceRole(bytes32,address)": {
        "details": "Revokes `role` from the calling account. Roles are often managed via {grantRole} and {revokeRole}: this function's purpose is to provide a mechanism for accounts to lose their privileges if they are compromised (such as when a trusted device is misplaced). If the calling account had been revoked `role`, emits a {RoleRevoked} event. Requirements: - the caller must be `account`. May emit a {RoleRevoked} event."
      },
      "revokeRole(bytes32,address)": {
        "details": "Revokes `role` from `account`. If `account` had been granted `role`, emits a {RoleRevoked} event. Requirements: - the caller must have ``role``'s admin role. May emit a {RoleRevoked} event."
      },
      "safeTransferFrom(address,address,uint256)": {
        "details": "See {IERC721-safeTransferFrom}."
      },
      "safeTransferFrom(address,address,uint256,bytes)": {
        "details": "See {IERC721-safeTransferFrom}."
      },
      "setApprovalForAll(address,bool)": {
        "details": "See {IERC721-setApprovalForAll}."
      },
      "symbol()": {
        "details": "See {IERC721Metadata-symbol}."
      },
      "transferFrom(address,address,uint256)": {
        "details": "See {IERC721-transferFrom}."
      }
    },
    "version": 1
  },
  "userdoc": {
    "kind": "user",
    "methods": {
      "desc()": {
        "notice": "Nome descritivo do registro"
      },
      "srid()": {
        "notice": "Cdigo EPSG do Sistema de Referncia Geospacial"
      }
    },
    "version": 1
  }
}